:020000040800F2
:100000000020001081300008D1300008392D000890
:10001000D5300008D9300008DD30000800000000AD
:10002000000000000000000000000000E1300008B7
:10003000E530000800000000E93000083B2D000812
:10004000ED300008F1300008F5300008F930000804
:10005000FD300008013100080531000809310008B1
:100060000D31000811310008153100081931000860
:100070001D31000821310008253100082931000810
:100080002D310008313100083531000839310008C0
:100090003D31000841310008453100084931000870
:1000A0004D31000851310008553100085931000820
:1000B000EB2D00085D310008613100086531000852
:1000C000693100086D310008713100087531000890
:1000D000793100087D310008432D00088131000886
:1000E00085310008893100088D3100089131000800
:1000F00095310008993100089D310008A1310008B0
:10010000A5310008A93100080F2E0008AD31000804
:10011000B1310008B53100081F2E0008392E000843
:10012000B9310008BD310008C1310008C5310008EF
:10013000C9310008CD310008D1310008D53100089F
:10014000D9310008DD310008E1310008E53100084F
:10015000E9310008ED310008F1310008F5310008FF
:10016000F9310008FD3100080132000805320008AD
:10017000093200080D32000811320008153200085B
:10018000193200081D3200082DE9F0439FB00FF628
:10019000C036269CDFF81C898DF83B400291002474
:1001A0000B944FF0FF37044691461D460AE019F8BC
:1001B000011B0298A0470028029000F0A1800B9834
:1001C000401C0B9099F8000050B12528EFD1002178
:1001D0000022059106920791089209910A9203E084
:1001E0000B98A0E041F0010119F8010F2028F9D087
:1001F00023280CD02B2804D02D2805D0302809D056
:1002000080E041F00201EFE741F00401ECE741F04A
:100210000801E9E741F01001E6E70D920AE00D98C8
:10022000404505DA00EB800002EB4002303A0D92C7
:1002300009F1010999F80020A2F130000A28EED353
:1002400099F800002E2818BF0C9726D119F8010F35
:100250002A2808D12868286009F1010950F8042BE0
:1002600028600C9219E02D280CBF09F1010900202B
:1002700000220C920BE040B90C9A424505DA02EBE1
:10028000820203EB4203303B0C9309F1010999F818
:100290000030A3F130020A2AEDD3ADF83810304611
:1002A00099F8001000F0A4FD08B119F8010B8DF8C1
:1002B0003A009DF83A00682805D199F800006828AE
:1002C0000CD1622106E06C2804BF99F800006C286C
:1002D00004D171218DF83A1009F1010910A8049098
:1002E0002A4619F8013B6946204600F05CF838B907
:1002F00010AA6946204600F088F900287FF562AF11
:10030000384610E02A2888D12A682A6052F8040B5F
:100310002A6000280D9003D540420D9041F0040161
:1003200009F101098CE71FB0BDE8F083622820D0F5
:10033000682811D06A2803D06C2827D0712825D1CD
:100340000868C01D20F007000860D0E900230830CD
:100350000860194610467047002A0A680A6010684B
:1003600003D0121D0A6000B217E0121D0A6080B2AD
:1003700017E0002A0A680A60106803D0121D0A609C
:1003800040B20AE0121D0A60C0B20AE0002A0A6800
:100390000A60106803D0121D0A60C1177047121D51
:1003A0000A600021704770B51C460D46B4F1250067
:1003B0002E69114600F017812038022865D91338BC
:1003C00041D00B3816D0401E1ED0401E02285CD9EA
:1003D000001F19D0401F00F08380401E33D0401E04
:1003E00000F0CD80C01E00F0DC80801E2BD0C01E2F
:1003F00029D0FEE06869421C6A610A680A6052F806
:10040000043B0A603354FEE095F83A000122FFF7FE
:100410008DFFC5E900010023994204DA6869411C97
:1004200069612D220DE0288F810704D56869411C80
:1004300069612B2205E0C00722D56869411C69610A
:10044000202232541CE095F83A000022FFF76EFF9C
:10045000C5E9000195F83800010711D5D5E9002359
:100460000020834208BF82420AD044F0200078284E
:1004700006D1686930213154401C421C6A613454F1
:10048000214668693044E86087E00868C01D20F0B4
:1004900007000860D0E9002308300860C5E90023A0
:1004A000D5E90001C80F04D06869411C69612D229B
:1004B0000DE0288F810704D56869411C69612B22F2
:1004C00005E0C00704D56869411C696120223254E7
:1004D00068693044E8602146284600F0C8F992E097
:1004E00005F13A02507820B14FF0FF340FF6680062
:1004F00062E01078622808D0682824D06A2812D0D8
:100500006C282ED071280ED02BE00A680A6052F8B1
:10051000040B0A6020B94FF0FF340FF654004BE093
:10052000E96A01706FE00A680A6052F8040B0A6019
:1005300020B94FF0FF340FF638003DE0EA6AD317D8
:10054000C0E900235FE00A680A6052F8040B0A6001
:1005500020B94FF0FF340FF618002DE0E96A018052
:1005600051E00A680A6052F8040B0A6020B94FF0A3
:10057000FF340FF2FC701FE0E96A016043E00A6893
:100580000A6052F8040B0A60002120F0000221F0FA
:10059000FF33C5E90023EE607821284600F0BBF860
:1005A00031E00868086050F8044B0860EC603CB922
:1005B0004FF0FF340FF2D07000F02AFC201A70BD0B
:1005C0002E6B002E04D5204600F042FC044608E0C5
:1005D00032460021204600F057FC002814BF041BBF
:1005E0003446AC610FE06869411C696125223254D0
:1005F00009E06969481C686125227254210002D013
:10060000431C6B613454002070BD2DE9FC410F4642
:10061000064690467A6B7869396ABC6A121AB869DC
:10062000521A796A121AF869521A121A97F838008F
:10063000141B41070FD42020002C8DF800000ADD88
:10064000254601236A463946304600F069FB0028FA
:100650005DD16D1EF5D17B6942463946304600F0CA
:100660005FFB002853D130208DF800003D6A002D3B
:1006700009DD01236A463946304600F051FB002867
:1006800045D16D1EF5D1BB69FA683946304600F098
:1006900047FB00283BD130208DF800007D6A002DFB
:1006A00008DD01236A463946304600F039FB70BB4D
:1006B0006D1EF6D1F868B969FB69421839463046B3
:1006C00000F02EFB18BB30208DF80000BD6A002D15
:1006D00008DD01236A463946304600F021FBB0B9F7
:1006E0006D1EF6D197F8380041070DD52020002C5B
:1006F0008DF8000008DD01236A463946304600F0D7
:100700000FFB20B9641EF6D10020BDE8F6814FF042
:10071000FF30BDE8F6812DE9FC4707468C463E696F
:10072000BCF16F0F08BF082405D04CF020007828DA
:1007300014BF0A2410243C25D7E90023BCF1640F20
:1007400018BFBCF1690F9046994606D100218B4233
:1007500003DAD8F1000869EB49094FF0000AD145E6
:1007600008BFD0451FD1386BE8B9082C4BD197F89A
:100770003800010747D530203B2586F83B0042E092
:1007800000280ED597F8380000F01400102808D182
:100790007B6B7969386A5B1A1B1A9A1A002AC8BFE0
:1007A0003A62BDE8F3878DF800C0404649462246CC
:1007B000E31700F095FB3032D0B26D1E3A28019558
:1007C00004DB9DF80000A0F151018A1872554046E3
:1007D00049462246E31700F083FB89468046D1450F
:1007E00008BFD04503D0F86871198842DDD3082CC2
:1007F00009D197F83800010705D5705D302802D07F
:100800006D1E30207055C5F13C02BA617119F96056
:10081000386B8242B4DA821A3A624FF6EF70398F3F
:1008200001403987BDE8F3872DE9D04306460F46DE
:1008300014464FF00008DFF8809212E0E00707D579
:1008400042464B463046394600F062FC06460F46AB
:100850004046494642464B4600F05AFC64108046EA
:100860008946002CEAD130463946BDE8D0832DE9CF
:10087000F84F05468CB0286BD5E9008900288B46D7
:1008800002AC02D50620286305E001BF4BF0200032
:10089000672801212963D5E900A670004015401C96
:1008A0000DD131030BD0ABF1610103201A29A861EE
:1008B00002D20FF2F04110E00FF2EC410DE07100B6
:1008C0004915491C0ED130030CD1ABF16101032055
:1008D0001A29A86116D30FF2D841E868032200F064
:1008E000E9FCE3E026F00043B3F5801F2AF00002A4
:1008F00011D20027BB4208BFBA42019705D150462A
:10090000314618E00FF2A441E7E701AA504631460C
:1009100000F024FD08E06948694900EB135001909C
:100920000E40684950463143019B674F47F297524A
:10093000534393FBF7F7C5E90001D5E9000620F022
:10094000000226F000430020834204BF82420023BD
:1009500000F0A480404649460022002300F036FD06
:1009600038BF89F000493A46D2F10702019703DD0A
:100970004946FFF759FF0AE0524200205349FFF76A
:1009800053FF02460B464046494600F037FD80467D
:100990004BF02006662E286B06BF019C0A34062405
:1009A0002418142CC8BF1424302089468DF8080060
:1009B0000DF10907002C33DD4046494600F042FEA8
:1009C00001460A4607F1080304200A27B2FBF7F79D
:1009D00007EB870EA2EB4E02303203F8012C0A22FD
:1009E000B7FBF2F202EB820EA7EB4E073037401E48
:1009F00003F8027DE9D1083C002C03F10807D9DD9A
:100A0000084600F033FE02460B464046494600F0D9
:100A10003BFE00222E4B00F07BFB80468946CBE755
:100A20000DF109003F1A0DF1090404E00198401E80
:100A30007F1E0190641C20783028F7D0662E02D1EA
:100A40000198401C03E0652E0CBF012000202B6B99
:100A5000C3189F42B8BF7B1E002B1ED4BB4204DAD2
:100A6000E05C3528A8BF392000DA30201946621E24
:100A700002EB010800E05B1E18F80199491E814550
:100A8000F9D0392802D1605C401C6054002904D59B
:100A90000198401C14465B1C0190019800B2009024
:100AA0001BB222465946284600F014F80DB0BDE8A6
:100AB000F08F0000CBCCCC0C0000244002FCFFFFE8
:100AC000FFFF0F800000E03FA08601000000F03F24
:100AD00084D797412DE9F84783B005468A46914669
:100AE000984600F043FEB8F1000F406A2F6B06787D
:100AF00003DC4FF001080FF2BC294AF02000BDF9D9
:100B00003040662808BF641C13D0672840F08F80EF
:100B100014F1040F7ADBBC4278DA95F83800641CD3
:100B2000010702D4B845B8BF474620B23F1A48BFB4
:100B300000270FFA84FAE868A969BAF1000F23DCEC
:100B40004A1C30234354002F03DC95F8380001077A
:100B500002D5E8688654521C17EB0A0FB8BF7C42D6
:100B600024B2E71960424745B8BFB846AA61686237
:100B70000FFA88F4EC61E868AB69224649461844EC
:100B800000F098FB3F1B18E022B29045084416DAAB
:100B90004246494600F08EFBA8694044A861AAEB92
:100BA0000801002F696203DC95F838100A0704D5A4
:100BB000E9680E54E869401CE861AF6299E0494673
:100BC00000F078FBA869002F5044A8EB040803DC70
:100BD00095F838100A0702D5E9680E54401CA86140
:100BE0000FFA88F08742EB68A869B8BFB8460FFAD9
:100BF00088F209EB0A01184400F05CFBA9690FFABE
:100C000088F00144A961381A686272E0B84504DAD4
:100C100095F838100A0758BF47467F1E48BF00277F
:100C2000BAF1670F0CBF4FF0650A4FF0450AA9698A
:100C3000EB68481CA861002F19F8012B5A5403DCFB
:100C400095F838100A0719D5E968431CAB610E54B2
:100C5000002F13DDA8F1010630B28742D5F80CC091
:100C6000B8BF3E4632B249460CEB030000F022FB0F
:100C7000A86936B23018BF1BA8616F62E868A9691D
:100C80000844002C80F800A003D42B224270811C61
:100C900003E02D2141706442811C00206A460AE075
:100CA00023460A2493FBF4F404EB8406A3EB4603E7
:100CB00002F8013B401C24B2002CF1DC012806DCC8
:100CC0004AF02002652A04BF302201F8012B48B9FE
:100CD000302001F8010B07E0401E1DF800303033D2
:100CE00001F8013B0028F7DCEA68A8691044091AFA
:100CF000E96195F8380000F0140010280DD16A69F8
:100D0000A969686A8A18E9698218A86A8A18821823
:100D1000686B8242BCBF821A2A6204B0BDE8F087C9
:100D2000F8B505460E4617461C46002074B117F864
:100D3000011BB068A847B06030B1F06A401CF06297
:100D40000020641EF3D1F2BD4FF0FF30F2BD000071
:100D5000686A6C747A4C00007072696E74665F73B6
:100D60003A20256E20646973616C6C6F776564004E
:100D70007072696E74663A2062616420256E20612B
:100D80007267756D656E74007072696E74665F73FC
:100D90003A2062616420257320617267756D656E0B
:100DA000740000006E616E004E414E00696E660078
:100DB000494E4600300030B4002513E050F8042BB3
:100DC000D30744BFA9F101039A18091F042942F867
:100DD000045BFAD213468C0744BF15809B1CC907DD
:100DE00048BF1D7050F8041B0029E7D130BC704784
:100DF0000278C9B28A421AB11CBF10F8012FF9E774
:100E000018BF002070470268531C036011707047C0
:100E100080B500B906A005490B681BB1222200214C
:100E2000984701E000F0A6FC222002BD6C050020DE
:100E3000636F6E73747261696E742068616E646C46
:100E400065723A20626164206D6573736167650045
:100E500000F10103810704D010F8011B820781B162
:100E6000FAD10268A2F10131914311F0803104BF3F
:100E700050F8042FF6E709BAB1FA81F100EBD1007E
:100E8000401CC01A70470000C9B2830706D0521E2A
:100E900022D310F8013B9942F7D11FE0083A13D34F
:100EA00002F1040241EA012141EA014150F8043B08
:100EB000121F21BF4B40A3F1013C2CEA030C1CF094
:100EC000803FF3D0C9B2001F083210F8013B521E18
:100ED00028BF91EA030FF8D818BF0120401E7047C1
:100EE000BBBBE1B1B2F5803F80F07E80022A1ED903
:100EF0008C46B1FBF2F102FB11C31B0443EA104321
:100F0000B3FBF2FC02FB1C3380B240EA0343B3FBA9
:100F1000F2F002FB103240EA0C4000237047022A34
:100F200005D98446B0FBF2F002FB10C270474AB10B
:100F300005D100F0010249085FEA30007047002245
:100F40000023704700F01ABC0B00020000210020B3
:100F50007047904271EB030CF6D3B3F5803F2FD26C
:100F6000F0B5B3FA83F7B1FA81F4A7F10F0E3D1B88
:100F70005340CEF1200602FA0EF2F3415340B5F190
:100F80000F0746D80F3C2C444140C4F12006A04036
:100F9000F1414140B1FBF3F603FB1611A2FB0645FC
:100FA000001BA94102D2761E8018594180EA010235
:100FB00021FA0EF362FA0EF200215A403046F0BDDB
:100FC00030B4B1FBF3FC03FB1C11A2FB0C45001B6E
:100FD000A94103D2ACF1010C8018594130BC024642
:100FE0000B46604600217047B2F1807F65D3F0B5B3
:100FF000B2FA82F7B1FA81F4C7F10F063D1B22FA6B
:1010000006F307F1110EF24120355A40B5F10F07F2
:10101000B8D94140C4F12006A040F1414140B1FBA4
:10102000F3FC03FB1C11A2FB0C45001BA94103D2DE
:10103000BCF1010C801859410F2F12D30F3FC90387
:1010400041EA5041B1FBF3F603FB1611A2FB064542
:10105000D4EBC030A94102D2761E8018594146EA2D
:10106000CC3C07B34140C7F12006B840F1414140B4
:10107000B1FBF3F603FB1611A2FB0645001BA941C9
:1010800002D2761E8018594180EA010221FA0EF33D
:10109000C7F1200462FA0EF20CFA07F05A402CFA5B
:1010A00004F13043F0BD80EA010221FA0EF3002181
:1010B00062FA0EF260465A40F0BD8C46B1FBF2F186
:1010C00002FB11C31B0243EA1063B3FBF2FC02FBF9
:1010D0001C331B024CEA002043EA1063B3FBF2FC12
:1010E00002FB1C331B024CEA002043EA1063B3FBF3
:1010F000F2FC02FB1C331B024CEA002043EA1063A3
:10110000B3FBF2FC02FB1C324CEA002000237047C8
:10111000B0B581EA030C0CF0004C40F2FF7515EA03
:1011200011541DBF15EA1357AC42AF4239E0E41920
:1011300023EA455343F48013C90241F0004141EAD8
:10114000505EC7021100A7FB020200284FF000000A
:10115000EEFB01204FF00001E3FB072118BF42F036
:101160000102401800214941E3FB0E01A4F580640F
:101170000F0302D252004041494154F101046CDD99
:10118000470872F1004250F1000051EB0451A1F503
:1011900080115CBF41EA0C01B0BD4CEA0551002052
:1011A000B0BD05EA1357AC4214BFAF4241E050EA6C
:1011B000410E1CBF52EA430E02E061460020B0BD62
:1011C00024423C441BD15FEA070EF6D0090302BF5C
:1011D00001460020AEF1140EB1FA81F7AEEB070420
:1011E00001FA07FE0C37C7F1200100FA07F7C840E3
:1011F0004EEA000E23EA455343F48013A2E733F08E
:101200000043B3FA83F704BFB2FA82FE77440B3F80
:10121000E41BB7F1200E2FBF02FA0EF3BB40C7F15B
:10122000200E22FA0EFE38BF43EA0E03BA40641CB9
:1012300082E750EA410E14BF52EA430E6FF00001FC
:101240004FF4001717EB430F8ABF194617EB410FF6
:10125000B5E74CEA05510020B0BDD4F10104B4F16A
:1012600020070FDAC4F12007520828BF42F001021C
:1012700010FA07F501FA07F7E1BF2A43E0403843C7
:10128000E1400FE0352C98DCC7F1200452EA40021F
:1012900020FA07F218BF42F0010231FA07F0A1402C
:1012A0000A43002172F1004250F1000051EB0C01A1
:1012B000B0BD000062B38B0708D0521E11F8013B8D
:1012C00000F8013B00F024808B07F6D1830740F043
:1012D000208000BF103A07D330B4B1E83810103A7C
:1012E000A0E83810F9D230BC530724BFB1E8081089
:1012F000A0E8081044BF51F8043B40F8043BD20773
:1013000024BF31F8022B20F8022B44BF0B78037066
:101310007047121F17D35B0009D151F8043B20F826
:10132000023B1B0C121F20F8023BF6D20BE051F8D7
:10133000043B00F8013B1B0A20F8023B1B0C121F68
:1013400000F8013BF3D238BF121D521E24BF11F822
:10135000013B00F8013BF8D87047000010B5144677
:1013600000F002F8226010BDC1F30A5343B14A00F5
:1013700012F5001F28D2A3F2FE32A1EB02517047F2
:1013800050EA410C20D001F0004C31EA0C01B1FAD6
:1013900081F204BFB0FA80F3D2180B3AB2F1200305
:1013A0002CBF00FA03F1914041EA0C013EBFC2F1AB
:1013B000200C20FA0CF319439040524240F2FD33C6
:1013C000D21A01EB03517047002270474FF4001C02
:1013D0001CEB410F94BF1CEB430F09E041EA030CE7
:1013E00050EA4C0C52EA0C0C03D2994208BF9042CE
:1013F000704714BF8B42824270470000F0B540F244
:10140000FF7581EA030C0CF0004C15EA11541DBF66
:1014100015EA1357AC42AF42E5E0BC41C1F31301FA
:10142000C3F31303801A994143F4801304D2641E5A
:101430004000494180185941C90241EA5051B1FB6D
:10144000F3F603FB1611A2FB0675D7EBC020A941EA
:1014500002D2761E80185941C90241EA5051B1FBAF
:10146000F3FE03FB1E11A2FB0E75D7EBC020A941B2
:1014700003D2AEF1010E80185941890241EA905120
:10148000760546EA8E2EB1FBF3F603FB1611A2FB9E
:101490000675D7EB8020A94102D2761E80185941EB
:1014A000C90241EA50514EEA060EB1FBF3F603FBC6
:1014B0001611A2FB0675D7EBC020A94102D2761EF9
:1014C00080185941C90241EA5051B1FBF3F703FBBF
:1014D0001711A2FB0735D3EBC020A94167F1000724
:1014E0000CBF004247F0010766F3D5274FEA1E31D3
:1014F000B80814F5806412DDBD0775F1004250EBA9
:101500000E5051EB045111F5801F5CBF41EA0C01F4
:10151000F0BD4CF07F6141F0E0410020F0BDBD071F
:101520006D0840EA0E5041F48011D4F10104B4F189
:1015300020060ADAC4F120060200E04001FA06F3B0
:10154000E1401843B24015430EE0342C13DCC6F1E1
:10155000200445EA40056D0820FA06F2154321FAF9
:1015600006F0A1400D43002175F1004250F100004A
:1015700051EB0C01F0BD00205FEA0C01F0BDCFB9CA
:1015800092185B41B3FA83F704BFB2FA82F6BF192F
:101590000B3FB7F120062FBF02FA06F3BB40C7F19D
:1015A000200622FA06F638BF3343BA401CB1E419CC
:1015B000641E33E77F4231F00041B1FA81F404BF89
:1015C000B0FA80F6A4190B3CB4F120062FBF00FA44
:1015D00006F1A140C4F1200620FA06F638BF3143D7
:1015E000A0403C1B1AE7AC421ABF05EA1357AF42B2
:1015F00012E050EA41061CBF52EA4306BFE750EA38
:101600004107304661461CBF41EA0551F0BD52EA30
:10161000430C08BFC143F0BD00204FF4001616EB89
:10162000410F98BF16EB430F08BF16EB410F24BFC5
:10163000C14305E016EB430F0CBF61464CEA055170
:10164000F0BD0000400D491840EA81200CD2490D40
:10165000A1F58061491C40F0004005DBD1F11F017C
:1016600054BFC840C017704700207047014648B1BA
:10167000B0FA80F18840C91CC1F58461090501EB0D
:10168000D02140057047000070B44FF0004591EA4A
:10169000030F40F175806B40841A71EB030603D28F
:1016A000001BB141121973414FF4001C1CEB410F98
:1016B00034BF7CEB430442E00C0DA4EB1356352EF3
:1016C0004FDC45EAC323DB0A45EAC121C912B6F162
:1016D00020050DDD63FA05F6EB4086EA03051242AC
:1016E00018BF45F00105C01851F100010CD213E0FC
:1016F00062FA06F5F2405540F3415A40B340F340D8
:101700005A408018594107D349085FEA30005FEA20
:10171000350528BF45F0010501F58011420875F136
:10172000004250F1000041EB04514E0016F5001F3D
:1017300070BC38BF70470020090D090570471CEBCD
:10174000410F10D252EA43060BD0BCEB410F05D833
:101750000C0DAB43661E342EB6DD02E0AB438018A1
:10176000594170BC704770BC70470000004870471A
:1017700000000020012000F0B9B800007047000010
:10178000841A71EB030604D26E40001BB14112199A
:1017900073414FF4001C1CEB410F34BF7CEB43063C
:1017A00083E00C0DA4EB1356362E00F37C80012E43
:1017B00045EAC32341DC43EA525312BFD2029202EC
:1017C0005B08240545EAC12141EA5051D2EBC02013
:1017D000994125D407D1B0FA80F610FA06F162D00B
:1017E0000020203608E0B1FA81F6B140C6F12002AF
:1017F00020FA02F21143B0404FEAF474B4EB4654BD
:1018000034F001064FEA74040AD8D6F50016760DB6
:1018100004F00044F04061FA06F25040F1404840C4
:10182000C00A40EA415021F0004128BF5FEA50055C
:1018300050F1000044EBD12135E0DB0A45EAC1213B
:10184000C90AB6F120050EDD42EA0242120CC5F1CA
:10185000200603FA06F6EB4042EA06056D4298417F
:1018600061F100010DE062FA06F5F240554063FABD
:1018700006FC82EA0C02F3405A406D42904161EB53
:10188000030111F4801F05D1641E620502D06D00B2
:101890004041494121F48011430875F1004350F162
:1018A000000041EB045170BC70471CEB410F15D296
:1018B00023F0004352EA43060BD04FEA4C0CBCEB3A
:1018C000410F04D80C0D661E342EB7DDEBE7801AED
:1018D000994150EA410608BF0021E4E708BF1CEB2C
:1018E000430F28BF6FF00001DDE7000080B5AFF3C4
:1018F0000080024A11001820ABBEFBE72600020060
:1019000038B586B001215FF4001000F006FA01211D
:10191000022000F0F4F9B04802900020ADF80C006D
:101920004BF6FF70ADF80E000120ADF8100000205E
:10193000ADF812004FF48040ADF81400A74C02A996
:10194000200000F017FA4FF44070009002208DF84C
:10195000040003208DF8050001208DF80600012009
:101960008DF807009E4D6946280000F003FB042215
:101970000821280000F075FB04220921280000F04E
:1019800070FB0121200000F06BFA07B030BDF8B504
:1019900004000D00914E0121300000F070FA9149D1
:1019A000300000F0ADFA0028F9D000228E4800780F
:1019B000B0F16001C9B2300000F07FFA8B4930000D
:1019C00000F09EFA0028F9D02900C9B2300000F0DA
:1019D00090FA874F3900300000F092FA0028F8D0D2
:1019E0002100C9B2300000F084FA3900300000F064
:1019F00087FA0028F9D00121300000F04FFA0220C8
:101A000000F00DFCF1BDF8B50400744E5FF4003138
:101A1000300000F08DFA0028F7D10121300000F0ED
:101A20002EFA704D2900300000F06AFA0028F8D034
:101A30006D4F00223878B0F16001C9B2300000F07B
:101A40003CFA6A49300000F05BFA0028F9D0210026
:101A5000C9B2300000F04DFA6549300000F050FA8C
:101A60000028F9D00121300000F009FA29003000E7
:101A700000F046FA0028F9D001223878B0F1600170
:101A8000C9B2300000F019FA5A49300000F038FAB3
:101A90000028F9D00021300000F01CFA300000F0DE
:101AA0002CFA05000121300000F0F8F92800C0B23E
:101AB000F2BD2DE9F041040025002600B6B2360A39
:101AC0004D4F3988481C3880C9B23000C0B2FFF78A
:101AD0005EFF3988481C3880C9B22800C0B2FFF7C1
:101AE00056FF3888801EC0B2FFF78DFF80463888C9
:101AF000401EC0B2FFF787FF010040463200C0B26F
:101B0000D2B2904207D108002A00C0B2D2B29042AD
:101B100001D1002003E001203A88921E3A803A88E1
:101B2000B2F5807F0AD100223A802F4A13789B1C9D
:101B300013701378072B01DB00231370C0B2BDE8CC
:101B4000F0812DE9F84304000D002B490888002896
:101B500004D0B1F90000B0F101090AE04FF0FF092B
:101B600021480178891E01700178072901DB0621CF
:101B70000170A846404680B200282AD04846C0B22C
:101B8000FFF741FF0700B9F101094846C0B2FFF76E
:101B90003AFF0600B9F101093000C0B2000250FA64
:101BA00087F0414689B204EB410121F8020C484616
:101BB00000B200280AD5FF2081460B480178891E13
:101BC00001700178072901DB06210170B8F10108D5
:101BD000D0E7BDE8F1830000A0860100005400407A
:101BE00000040240010003007C0500208200070081
:101BF0008400070040000300700500202DE9F04F2D
:101C00000100002200230024022500200226DFF824
:101C10004471D7F800C01CF00C0CE646BEF1000F72
:101C200006D0BEF1040F07D0BEF1080F08D037E090
:101C3000DFF828210A6036E0DFF824210A6032E06C
:101C4000DFF814E1DEF80020C2F380521000DEF865
:101C5000002012F03F02160000280BD0DFF8002110
:101C6000B2FBF6F8DEF80020C2F3881202FB08F897
:101C700044460AE0DFF8E420B2FBF6F8DEF8002084
:101C8000C2F3881202FB08F84446DEF80020C2F3D3
:101C90000142521C52001500B4FBF5F20A6002E04A
:101CA000DFF8B8200A60D7F8008018F0F0085FEA83
:101CB0001818DFF8B0A01AF80820D1F800E03EFAB2
:101CC00002FEC1F804E0D7F8009019F4E0595FEA89
:101CD00099291AF809E0D1F804B03BFA0EFBC1F8D3
:101CE00008B03F6817F460477F0B1AF807A0D1F8D7
:101CF00004B03BFA0AFBC1F80CB0BDE8F08F0A0053
:101D0000D2B2002A04D0184A13680343136003E0D8
:101D1000154A13688343136070470A00D2B2002A41
:101D200004D0124A13680343136003E00F4A136898
:101D30008343136070470A00D2B2002A04D00C4AD1
:101D400013680343136003E0094A13688343136075
:101D50007047000008380240043802400024F400B4
:101D6000001BB700380000203038024040380240E5
:101D7000203802402DE9FF4705000E0000275FF0E4
:101D800000085FF00409DFF8CCA0AC884FF6C07003
:101D900004406846FFF732FF02992F48B1FBF0F28A
:101DA0001443AC802B884FF6FE7003402B80002339
:101DB0003068DFF8A8C060450DD230684000B1FB44
:101DC000F0F4200080B2042801DA04200400234348
:101DD000501C288423E0F0884BF6FF74A04205D104
:101DE000346803204443B1FBF4F406E0346819205E
:101DF0004443B1FBF4F454F48044200501D154F081
:101E0000010454F4004003431700BFB24FF496702E
:101E100047434FF47A7097FBF0F0401C2884AB8363
:101E2000288850F0010028802F884FF6F5300740B1
:101E3000B6F804C0708950EA0C0C5CEA07072F80E2
:101E4000B6F80CC0308950EA0C0CA5F808C0BDE803
:101E5000FF87000000127A0040420F00A1860100B7
:101E60000A00D2B2002A04D0028852F00102028095
:101E700004E003884FF6FE721340038070470A00A7
:101E8000D2B2002A04D0028852F48072028004E0A8
:101E900003884FF6FF621340038070470A00D2B2F6
:101EA000002A04D0028852F40072028004E0038801
:101EB0004FF6FF521340038070471300DBB2002B34
:101EC00002D051F0010101E011F0FE010B00DBB284
:101ED000038270470A00D2B2002A04D0028852F46A
:101EE0008062028004E003884FF6FF3213400380D3
:101EF00070470A00D2B202827047008AC0B27047AF
:101F0000F0B502000020002500270023968AB2F8D1
:101F100018C05FEA0C4C5CEA060424F07F4411EA26
:101F2000040E8E4501D1012000E00020C0B2F0BDBA
:101F300082B0020000230020019000200090009257
:101F40000800000F019021F07F410198002803D084
:101F500000981430009003E0090C009818300090AD
:101F600000980068084201D0012000E00020C0B2C3
:101F700002B07047F0B50022002300240025102D88
:101F80005CD2012616FA05F213000A681A40140002
:101F90009C4251D103270268AC465FFA8CFC5FEA91
:101FA0004C0C17FA0CFC32EA0C020260D0F800C0AC
:101FB00091F804E02A00D2B252001EFA02FE5EEA54
:101FC0000C0CC0F800C00A79012A02D00A79022A52
:101FD00022D18268AC465FFA8CFC5FEA4C0C17FA9F
:101FE0000CFC32EA0C028260D0F808C091F805E0DF
:101FF0002A00D2B252001EFA02FE5EEA0C0CC0F8B1
:1020000008C04268AE4032EA0606466042688E79F1
:10201000AE40B6B232434260C6682A00D2B2520025
:10202000974036EA0707C760C668CF792A00D2B260
:10203000520097403E43C6606D1CA0E7F0BD10B44F
:102040000200002310690C00A4B2204201D001203C
:1020500000E00020C0B210BC70470183704741838C
:102060007047F0B5002400251300DBB211F007061D
:10207000F6B2B60013FA06F60B009BB2DB1000EBCB
:1020800083070B009BB2DB1000EB8303D3F820C067
:102090005FF00F0E11F00703DBB29B001EFA03FE88
:1020A0003CEA0E0CC7F820C00B009BB2DB1000EB23
:1020B00083031B6A33430F00BFB2FF1000EB870797
:1020C0003B62F0BD010049B2002909D4012210F0A1
:1020D0001F018A40634903005BB25B0941F823207A
:1020E000704710B4020052B2002A05D40A015E4BB8
:1020F000040064B21A5508E00A015C4B040064B2A3
:1021000014F00F04234403F8042C10BC704710B5DE
:102110008AB000205649086001210920FFF7FDFD23
:1021200000210920FFF707FE06A8FFF767FD5FF013
:10213000804000F032F92920ADF800000020ADF811
:1021400002004FF47A7001900020ADF808000020E2
:102150008DF80A0069465FF0804000F093F8012294
:1021600001215FF0804000F0EBF801215FF080403A
:1021700000F0F2F801211C20FFF7B3FF1C20FFF74D
:10218000A1FF06A8FFF73AFD3A4C200000F005F940
:102190003720ADF800000020ADF8020001200190CA
:1021A0000020ADF8080000208DF80A0069462000E4
:1021B00000F068F801220121200000F0C1F801219F
:1021C000200000F0C9F800213220FFF78AFF3220FA
:1021D000FFF778FF0121200000F095F80121102081
:1021E000FFF79BFD03A800F082F84AF20F40ADF81C
:1021F0000C004FF47A6004901F4C03A9200000F0FB
:1022000041F801220121200000F09AF80221362035
:10221000FFF767FF3620FFF755FF0AB010BD01B486
:1022200016490098086008680028FCD101B0704782
:1022300012490868002802D00868401E08607047EC
:1022400001B40F490098086008680028FCD101B06B
:1022500070470B490868002802D00868401E0860D3
:102260007047000000E100E000E400E018ED00E04D
:1022700060050020000C00400010004068050020B0
:102280006405002010B400220488264B98420ED02A
:102290002A4A90420BD0B0F1804F08D0224A904297
:1022A00005D0224A904202D0214A904204D14FF6F2
:1022B0008F7214404A8814431E4A904207D01E4A27
:1022C000904204D04FF6FF4214400A891443048020
:1022D0004A68C2620A880285984202D0174A904230
:1022E00001D18A7A02860122828210BC70475FF097
:1022F000FF314160002101800021018100214180E6
:102300000021817270470A00D2B2002A04D00288EC
:1023100052F00102028004E003884FF6FE7213407F
:1023200003807047000001400004004000080040A6
:10233000000C004000100040001400400004014068
:102340001300DBB2002B03D083890B43838102E0AF
:1023500083898B43838170470A0092B2D243028201
:102360007047F0B40200002300260024178A0F40B3
:1023700095890D40380080B2002805D0280080B231
:10238000002801D0012000E00020C0B2F0BC70475E
:102390000A0092B2D2430282704702894FF6F87166
:1023A0000A400281704700002DE9F04F85B004001B
:1023B0000D00002600275FF000085FF00009A889E3
:1023C0000028218A31F44051E888014300910098A7
:1023D0002082B4F80CA02C4810EA0A0AA98828899F
:1023E00001436889014351EA0A0AA4F80CA0B4F831
:1023F00014B03BF4407BA88950EA0B0BA4F814B04E
:1024000001A8FFF7FBFB1E48844202D01D4884420E
:1024100001D1049900E00399A089000407D519208F
:1024200000FB01F02A685200B0FBF2F206E019202E
:1024300000FB01F02A689200B0FBF2F26420B2FBCC
:10244000F0F6360133001B09642000FB1323A0893A
:10245000000408D5D80032306427B0FBF7F010F044
:102460000700064307E0180132306427B0FBF7F09D
:1024700010F00F000643268105B0BDE8F08F000084
:102480000010014000140140F3E9FFFF0A00D2B23E
:10249000002A04D0828952F40052828104E08389A8
:1024A0004DF6FF72134083817047CA05D20D8280BA
:1024B00070478088C005C00D70472DE9F0410023AA
:1024C000002500275FF0000E0C0040F66A16A4B24B
:1024D000B44280460C00E4B26409E4B20E00B6B225
:1024E00016F01F065FF0010C1CFA06FC012C02D14D
:1024F00018F10C0806E0022C02D118F1100801E0D6
:1025000018F114081300DBB2002B06D0D8F8003005
:102510005CEA0303C8F8003005E0D8F8003033EA7D
:102520000C03C8F80030BDE8F08102000023080069
:1025300080B2B0F5007F1088084201D0012000E091
:102540000020C0B27047F0B4040000270020002231
:1025500000260B0040F66A159BB2AB420D00EDB2AF
:102560006D09EDB20B009BB213F01F035FF0010C7D
:102570001CFA03F3012D02D1A089034006E0022DCD
:1025800002D1208A034001E0A08A03400A0092B2EF
:10259000120A92B21CFA02F220880240002B03D0E9
:1025A000002A01D0012000E00020C0B2F0BC70473A
:1025B00070B4002200240B0040F66A159BB2AB42B7
:1025C0000B009BB21B0A01259D402E00B6B2F643BC
:1025D000068070BC704700001CB504000121082073
:1025E000FFF78DFB0120009001208DF806000120EF
:1025F0008DF8040001208DF8070002208DF80500F9
:1026000069466348FFF7B6FC2000C0B200F001F84D
:1026100016BD10B5040000F032F8002801D00120EA
:1026200019E0CC2000F084F84E2000F081F86420FE
:1026300000F07EF89E2000F07BF82000C0B200F091
:1026400077F82000C0B200F007F8524991FBF0F093
:1026500051490860002010BD01000800C0B21F28C9
:1026600004D03F2804D05F2804D005E0082004E00F
:10267000042002E0022000E00120C0B2704738B51B
:102680000125434C01212000FFF7E9FC4FF4F070D5
:10269000FFF7D6FD01212000FFF7DFFC4120FFF707
:1026A000CFFD01212000FFF7CAFC04004FF4F070B9
:1026B000FFF7C6FDE4B2002C01D0012000E00020AD
:1026C000C0B232BD80B5FFF7DAFFCC2000F030F8A1
:1026D000442000F02DF830480068FFF7B1FDFFF707
:1026E000CEFFCC2000F024F8BE2000F021F800F04E
:1026F00055F802BD38B50400254D01212800FFF72B
:10270000AEFC2000C0B2002801D0032000E0412030
:10271000FFF796FD01212800FFF79FFC2000C0B2C3
:10272000002801D0412000E00320FFF789FD31BDE2
:1027300038B5040000252800C0B208280BDA2000B4
:10274000C0B2284110F00100FFF7D4FF0520FFF7C9
:1027500077FD6D1CEFE731BD38B500240C4D01212C
:102760002800FFF77CFC0220FFF76AFD012128000A
:10277000FFF773FC0D20FFF763FD01212800FFF731
:102780005EFC05002D20FFF75BFD2800C0B232BDC6
:10279000000C024000350C005000002038B5002429
:1027A00000252800C0B2102807DAFFF7D5FFA8409F
:1027B00010FA84F004006D1CF3E7A4B200EE104A96
:1027C000B8EE400AF3EE000A80EE200AF2EE040AA8
:1027D00020EE200ABDEEC00A10EE100A80B232BD13
:1027E000010049B2002909D4012210F01F018A40DA
:1027F000704903005BB25B0941F82320704710B4B5
:10280000020052B2002A05D40A016B4B040064B2E4
:102810001A5508E00A01694B040064B214F00F0471
:10282000234403F8042C10BC704710B586B0012176
:102830000820FFF764FA01215FF40030FFF76DFA1A
:102840002020009002208DF8040000208DF8060062
:1028500001208DF8070002208DF80500584C6946CC
:102860002000FFF787FB4020009000208DF8070034
:1028700002208DF8040069462000FFF77BFB072249
:1028800005212000FFF7EDFB072206212000FFF7BE
:10289000E8FB5FF4E13002900020ADF814000C205A
:1028A000ADF812000020ADF810000020ADF80E00C9
:1028B0000020ADF80C00434C02A92000FFF774FD86
:1028C00005212620FFF79BFF2620FFF789FF012225
:1028D00040F225512000FFF7F0FD01212000FFF715
:1028E000D5FD002006B010BDF8B50400364D28888F
:1028F0006428FBD0334E40F22667002239003000B6
:10290000FFF7DBFD2888002805D180213000FFF784
:102910000CFE00280FD12D482D4902888C540188C7
:10292000491C01800188642901D100210180288887
:10293000401C288005E02100C9B289B23000FFF7B1
:10294000B4FD012239003000FFF7B7FDF1BD38B505
:1029500005000C00002C05D02878FFF7C5FF6D1C82
:10296000641EF7E731BD01001A480288642A07DABD
:10297000194A0388D1540288521C0280002000E0CA
:1029800001207047144980B2085C7047114800214B
:1029900001800188642907DA00210F4A0388D15495
:1029A0000188491C0180F4E7002101807047094932
:1029B0000880704700E100E000E400E018ED00E06E
:1029C000000C0240004400407A05002076050020FB
:1029D000B8040020740500205404002010B4020044
:1029E00052B2002A05D40A01544B040064B21A55AD
:1029F00008E00A01524B040064B214F00F042344AF
:102A000003F8042C10BC704710B50400601EB0F130
:102A1000807F01D301200EE0601E4A4908600F212B
:102A20005FF0FF30FFF7DAFF00204749086007201A
:102A300046490860002010BD70B5FFF768FB4448A8
:102A400000684FF47A71B0FBF1F0FFF7DDFF00F0A2
:102A500097F8FFF7EAFEFEF753FF7F20FFF7BCFD74
:102A600004002000C0B2002800D0FEE70121394850
:102A7000FFF749FC00F020F9032801DB00F0D4F84F
:102A8000354DFFF71FFE28802888FFF712F800F069
:102A90001DF900280ED12988304800F0F5F8298862
:102AA000032041430A2091FBF0F15A312C4800F0F9
:102AB000EBF83EE000F00AF9012807D1288802214E
:102AC00090FBF1F1274800F0DFF832E000F0FEF86B
:102AD00002282ED100F0F3F800282AD000F0F2F8F6
:102AE000214D4FF400712800FFF72BF80026B6F5B2
:102AF000007F15DA35F81600FEF7B8FD1B4A1C4BAF
:102B0000FEF706FBFEF79EFD01001A4800F0BCF838
:102B10001948016835F8162089180160761CE6E727
:102B2000154800684FF4A051B0FBF1F1134800F0D4
:102B3000ABF847F24810FFF772FB9BE700E400E0B8
:102B400018ED00E014E000E018E000E010E000E024
:102B50004C0000200010004072050020B430000836
:102B60006C3000089030000854000020F2D24D6212
:102B70001058E53F9C3000085C050020BC30000880
:102B8000E0B501210420FFF7BAF84FF4015000909E
:102B900001208DF8040000208DF8060001208DF83A
:102BA000070002208DF8050069460D48FFF7E2F99D
:102BB00001210820FFF7A3F81F20009001208DF8C5
:102BC000040000208DF8060001208DF80700022087
:102BD0008DF8050069460348FFF7CCF907BD0000F2
:102BE00000080240000C024010B504002000C0B2F2
:102BF000FFF7B9FE00215FF08040FFF784FB002063
:102C0000344908602000C0B2FF2803D1324801785F
:102C1000491C017030480078032804D001215FF07E
:102C20008040FFF770FB10BD10B500202A490870E6
:102C30000020FFF7A7FE002813D10120FFF7A2FE16
:102C400008280ED10320FFF79DFE012804D14FF480
:102C500000502249088014E04FF4005020490880B9
:102C60000FE00120FFF78EFE00280AD11D4C002046
:102C7000FFF788FE20702078022802D101201A492F
:102C80000870FFF783FE10BDF8B504000D00174E65
:102C90002B0022001649300000F02EF83000FEF71D
:102CA000D7F80700390089B23000FFF750FE032142
:102CB0001048FFF74CFEF1BD0748007870470A48FE
:102CC0000078704700200849087070470548007870
:102CD00070470000240000407D0500201A080240D3
:102CE000180802407E0500207F0500201C050020FA
:102CF000C4300008480000200CB430B583B00A4648
:102D000006A90291044600250194009502AB01A991
:102D1000084878441E30FDF737FA019A15700028EC
:102D20004EBF04460198041B204603B030BC5DF83A
:102D30000CFB00BFD3E0FFFFFEE780B5FFF778FA9A
:102D400001BD38B501214348FFF787F9424C40F2F5
:102D5000255529002000FFF7F6FB002811D0290097
:102D60002000FFF725FC208810F0030F06D120007B
:102D7000FFF79FFBC0B2FFF737FF02E02000FFF72D
:102D800098FB40F225312000FFF7DDFB012802D13E
:102D90002000FFF78EFB40F2266529002000FFF798
:102DA000D2FB002820D029002000FFF701FC2B498E
:102DB0000888002813D00888401E0880284D2888DD
:102DC000411C2980274980B2095C89B22000FFF7A5
:102DD0006CFB2888642807D10020288004E00022AA
:102DE00029002000FFF769FB31BD80B501215FF0AC
:102DF0008040FFF7B1FA0020FFF7D9FD00215FF016
:102E00008040FFF780FA00201749086001BD80B5B7
:102E100001211648FFF7A0FAFFF71BFA01BD10B514
:102E2000134C01212000FFF79CFA002803D0012158
:102E30002000FFF7ADFA10BD10B50E4C01212000A7
:102E4000FFF78FFA002803D001212000FFF7A0FA36
:102E500010BD000000100240004400407A05002030
:102E600078050020B804002024000040000C004039
:102E7000001000400014004080B53C48016851F447
:102E8000700101603A49086850F0010008600020B4
:102E9000384A10600A68384802400A603748384AA1
:102EA0001060086830F48020086000203549086010
:102EB00000F005F85FF000603349086001BD82B0A2
:102EC00000200190002000902949086850F48030CB
:102ED0000860086810F4003000900198401C0190D0
:102EE0000098002803D10198B0F5A04FF1D10868EF
:102EF000800302D50120009001E00020009000989E
:102F000001282FD12148026852F0805202602048E7
:102F1000026852F440420260164802680260026889
:102F200052F400420260026852F4A0520260194A50
:102F3000134B1A600A6852F080720A600A689201A4
:102F4000FCD540F20571144A1160016889088900B6
:102F50000160016851F002010160016811F00C018B
:102F60000829FAD102B070470000000088ED00E0A7
:102F70000038024008380240FFFFF6FE10300024FF
:102F8000043802400C38024008ED00E040380240AE
:102F9000007000400C544007003C024030B450F830
:102FA000041B79B10268436802440830DC0744BF5F
:102FB000A9F10104E31852F8045B43F8045B091F0C
:102FC000F9D1ECE730BC704710B5074979441831A6
:102FD000064C7C44163404E00A68081D11448847F6
:102FE0000146A142F8D110BD2C0000004C000000A9
:102FF0004EF68851CEF20001086840F47000086077
:10300000BFF34F8FBFF36F8F4FF00070E1EE100AE8
:1030100070470000A3DDFFFF2C05000054000020D6
:103020000000000079FFFFFF54000000F4010000E1
:10303000000000200000000000F00DF8002801D082
:10304000FFF7C2FFAFF300800020AFF30080FFF76F
:10305000F3FC00F002F80120704700F001B8000016
:1030600007463846FEF742FCFBE7000074656D70CA
:10307000657261747572652E76616C3D00000000AA
:103080000148804701480047792E0008A930000810
:1030900061646420322C302C0000000061646420E4
:1030A000312C302C00000000AFF30080FFF7A0FFB0
:1030B000FFF7C2FF78302E76616C3D006E302E76C1
:1030C000616C3D00257325640000000000002E00A7
:1030D000FFF7FEBFFFF7FEBFFFF7FEBFFFF7FEBF24
:1030E000FFF7FEBFFFF7FEBFFFF7FEBFFFF7FEBF14
:1030F000FFF7FEBFFFF7FEBFFFF7FEBFFFF7FEBF04
:10310000FFF7FEBFFFF7FEBFFFF7FEBFFFF7FEBFF3
:10311000FFF7FEBFFFF7FEBFFFF7FEBFFFF7FEBFE3
:10312000FFF7FEBFFFF7FEBFFFF7FEBFFFF7FEBFD3
:10313000FFF7FEBFFFF7FEBFFFF7FEBFFFF7FEBFC3
:10314000FFF7FEBFFFF7FEBFFFF7FEBFFFF7FEBFB3
:10315000FFF7FEBFFFF7FEBFFFF7FEBFFFF7FEBFA3
:10316000FFF7FEBFFFF7FEBFFFF7FEBFFFF7FEBF93
:10317000FFF7FEBFFFF7FEBFFFF7FEBFFFF7FEBF83
:10318000FFF7FEBFFFF7FEBFFFF7FEBFFFF7FEBF73
:10319000FFF7FEBFFFF7FEBFFFF7FEBFFFF7FEBF63
:1031A000FFF7FEBFFFF7FEBFFFF7FEBFFFF7FEBF53
:1031B000FFF7FEBFFFF7FEBFFFF7FEBFFFF7FEBF43
:1031C000FFF7FEBFFFF7FEBFFFF7FEBFFFF7FEBF33
:1031D000FFF7FEBFFFF7FEBFFFF7FEBFFFF7FEBF23
:1031E000FFF7FEBFFFF7FEBFFFF7FEBFFFF7FEBF13
:1031F000FFF7FEBFFFF7FEBFFFF7FEBFFFF7FEBF03
:10320000FFF7FEBFFFF7FEBFFFF7FEBFFFF7FEBFF2
:10321000FFF7FEBFFFF7FEBFFFF7FEBFFFF7FEBFE2
:10322000CC300008CC300008CC300008CC3000088E
:10323000CC300008CC300008CC300008FFFFFFFF86
:10324000FFFFFFFFCE300008CC300008CC30000874
:10325000FFFFFFFFFFFF000000000000010203046A
:103260000102030406070809FFFFFF00007A030AB2
:0432700000350C0019
:04000005080030A916
:00000001FF
